:100000000C9463000C9427030C9454030C948B0001
:100010000C948B000C948B000C948B000C948B0034
:100020000C948B000C94A3050C948B000C948B0007
:100030000C948B000C948B000C948B000C948B0014
:100040000C9481030C948B000C948D000C94C800CC
:100050000C948B000C948B000C948B000C948B00F4
:100060000C948B000C948B000000000024002700EF
:100070002A0000000000250028002B0000000000DE
:1000800023002600290004040404040404040202DA
:100090000202020203030303030301020408102007
:1000A0004080010204081020010204081020000012
:1000B0000007000201000003040600000000000029
:1000C0000000AD01030211241FBECFEFD8E0DEBF58
:1000D000CDBF11E0A0E0B1E0ECE3FCE002C0059090
:1000E0000D92A232B107D9F711E0A2E2B1E001C04E
:1000F0001D92A63EB107E1F710E0C6ECD0E004C0C7
:100100002297FE010E941806C23CD107C9F70E943F
:1001100045050C941C060C9400001F920F920FB61C
:100120000F9211242F933F934F938F939F93EF93AD
:10013000FF938091C00082FD1DC04091C6002091B8
:100140006201309163012F5F3F4F2F7330708091B8
:100150006401909165012817390771F0E0916201FF
:10016000F0916301EE5DFE4F408330936301209375
:10017000620102C08091C600FF91EF919F918F9123
:100180004F913F912F910F900FBE0F901F90189598
:100190001F920F920FB60F9211242F933F938F93BC
:1001A0009F93EF93FF932091A6013091A701809137
:1001B000A8019091A9012817390731F48091C10055
:1001C0008F7D8093C10014C0E091A801F091A90136
:1001D000EA59FE4F20818091A8019091A9010196D2
:1001E0008F7390709093A9018093A8012093C6000B
:1001F000FF91EF919F918F913F912F910F900FBEA3
:100200000F901F901895DC011C96ED91FC911D97A5
:10021000E05CFF4F2191319180819181281B390B46
:100220002F733070C9010895DC011C96ED91FC918B
:100230001D97E05CFF4F20813181E054F040DF01E9
:10024000AE5BBF4F8D919C9111972817390719F418
:100250002FEF3FEF07C08D919C91E80FF91F808130
:10026000282F30E0C9010895DC011C96ED91FC9126
:100270001D97E05CFF4F20813181E054F040DF01A9
:10028000AE5BBF4F8D919C9111972817390719F4D8
:100290002FEF3FEF10C08D919C911197E80FF91F40
:1002A00020818D919C91119701968F73907011967A
:1002B0009C938E9330E0C9010895DC0191968C9156
:1002C0009197882339F05496ED91FC915597808150
:1002D00086FFF9CF91961C920895CF93DF93EC019E
:1002E000EE85FF85E05CFF4F20813181E054F040D6
:1002F0002F5F3F4F2F733070DF01AE5BBF4F8D918B
:100300009C91119728173907D1F3E05CFF4F80814A
:100310009181E054F040E80FF91F6083EE85FF857E
:10032000E05CFF4F31832083EE89FF89208181E0EB
:1003300090E00F8C02C0880F991F0A94E2F7282BD7
:10034000208381E089A3EC89FD898081806480839A
:1003500081E090E0DF91CF9108951092AD0110926D
:10036000AC0188EE93E0A0E0B0E08093AE01909302
:10037000AF01A093B001B093B1018DE091E09093F3
:10038000AB018093AA0182E291E09093B701809340
:10039000B60186E691E09093B9018093B80185ECAF
:1003A00090E09093BB018093BA0184EC90E090932D
:1003B000BD018093BC0180EC90E09093BF018093DD
:1003C000BE0181EC90E09093C1018093C00182EC6A
:1003D00090E09093C3018093C20186EC90E09093EB
:1003E000C5018093C40184E08093C60183E08093BB
:1003F000C70187E08093C80185E08093C90181E04F
:100400008093CA0108958DE191E09093CD0180938E
:10041000CC011092CE011092CF011092D001109217
:10042000D10108958F929F92AF92BF92CF92DF92A7
:10043000EF92FF920F931F93CF93DF934C016B01C9
:100440007C01AA24BB24C0E0D0E0C601F701628190
:100450004AE050E00E9415038C01C6016EE20E9442
:100460007E02080F191FA00EB11E21960894E11CF0
:10047000F11CC330D10549F7C601F40165814AE09A
:1004800050E00E9415039501280F391FC901DF9123
:10049000CF911F910F91FF90EF90DF90CF90BF9081
:1004A000AF909F908F900895CF92DF92EF92FF923E
:1004B0000F931F93CF93DF937C016B018A01C0E000
:1004C000D0E00FC0D6016D916D01D701ED91FC9187
:1004D0000190F081E02DC7010995C80FD91F015087
:1004E00010400115110571F7CE01DF91CF911F91D9
:1004F0000F91FF90EF90DF90CF900895DC01ED9188
:10050000FC910190F081E02D09950895CF93DF9340
:10051000EC016115710519F420E030E00FC0DB013A
:100520000D900020E9F71197A61BB70BE881F98120
:100530000280F381E02DAD0109959C01C901DF9195
:10054000CF9108954F925F927F928F929F92AF9238
:10055000BF92CF92DF92EF92FF920F931F93DF93A0
:10056000CF93CDB7DEB7A1970FB6F894DEBF0FBE1D
:10057000CDBF2C01742ECB01223008F42AE019A241
:1005800031E2C32ED12CCC0EDD1E822E9924AA245A
:10059000BB24672D752FA50194010E94F4057901F4
:1005A0008A01C801B701A50194010E94D505472D14
:1005B000461B0894C108D1084A3014F4405D01C0BC
:1005C000495CF6014083E114F1040105110521F0B5
:1005D0007E2C5F2DC801DDCFC201B6010E948602CC
:1005E000A1960FB6F894DEBF0FBECDBFCF91DF91BD
:1005F0001F910F91FF90EF90DF90CF90BF90AF9041
:100600009F908F907F905F904F900895DC0121150F
:10061000310541F4ED91FC910190F081E02D642FC2
:10062000099508950E94A2020895EF92FF920F93F8
:100630001F939A01E62EFF2400E010E0B801A70105
:100640000E9406031F910F91FF90EF9008951F9253
:100650000F920FB60F9211242F933F934F935F93F6
:100660006F937F938F939F93AF93BF93EF93FF937A
:100670008091D2019091D301892B29F0E091D20190
:10068000F091D3010995FF91EF91BF91AF919F91A7
:100690008F917F916F915F914F913F912F910F902B
:1006A0000FBE0F901F9018951F920F920FB60F92CA
:1006B00011242F933F934F935F936F937F938F9367
:1006C0009F93AF93BF93EF93FF938091D401909149
:1006D000D501892B29F0E091D401F091D50109953C
:1006E000FF91EF91BF91AF919F918F917F916F910A
:1006F0005F914F913F912F910F900FBE0F901F90E0
:1007000018951F920F920FB60F9211242F933F93BB
:100710008F939F93AF93BF938091DA019091DB0108
:10072000A091DC01B091DD013091DE010196A11DA7
:10073000B11D232F2D5F2D3720F02D570196A11DC0
:10074000B11D2093DE018093DA019093DB01A09329
:10075000DC01B093DD018091D6019091D701A09189
:10076000D801B091D9010196A11DB11D8093D60188
:100770009093D701A093D801B093D901BF91AF91C5
:100780009F918F913F912F910F900FBE0F901F90CF
:100790001895789484B5826084BD84B5816084BDE9
:1007A00085B5826085BD85B5816085BDEEE6F0E0EA
:1007B000808181608083E1E8F0E010828081826046
:1007C0008083808181608083E0E8F0E080818160C7
:1007D0008083E1EBF0E0808184608083E0EBF0E0F7
:1007E000808181608083EAE7F0E08081846080839B
:1007F0008081826080838081816080838081806845
:1008000080831092C1000895982F8E3008F09E507A
:100810009770809100018295880F880F807C892BCA
:1008200080937C0080917A00806480937A0080912C
:100830007A0086FDFCCF2091780040917900942FBA
:1008400080E030E0282B392BC90108951F93CF9306
:10085000DF93182FEB0161E00E948604209709F4D2
:100860004AC0CF3FD10509F449C0E12FF0E0E2557D
:10087000FF4F84918330C1F0843028F4813051F0EF
:100880008230B1F50CC0863019F1873049F18430DF
:1008900079F514C084B5806884BDC7BD33C084B504
:1008A000806284BDC8BD2EC0809180008068809326
:1008B0008000D0938900C093880024C0809180007C
:1008C000806280938000D0938B00C0938A001AC00E
:1008D0008091B00080688093B000C093B30012C0D4
:1008E0008091B00080628093B000C093B4000AC0D1
:1008F000C038D1051CF4812F60E002C0812F61E077
:100900000E94C504DF91CF911F910895CF93DF938B
:10091000482F50E0CA0186569F4FFC0134914A5738
:100920005F4FFA018491882369F190E0880F991F45
:10093000FC01E859FF4FA591B491FC01EE58FF4F1F
:10094000C591D491662351F42FB7F8948C91932FCD
:10095000909589238C93888189230BC0623061F440
:100960002FB7F8948C91932F909589238C9388813D
:10097000832B88832FBF06C09FB7F8948C91832B5D
:100980008C939FBFDF91CF910895482F50E0CA010B
:1009900082559F4FFC012491CA0186569F4FFC014E
:1009A00094914A575F4FFA013491332309F440C0C0
:1009B000222351F1233071F0243028F42130A1F0AA
:1009C000223011F514C02630B1F02730C1F02430A8
:1009D000D9F404C0809180008F7703C0809180009B
:1009E0008F7D8093800010C084B58F7702C084B55E
:1009F0008F7D84BD09C08091B0008F7703C0809146
:100A0000B0008F7D8093B000E32FF0E0EE0FFF1F6A
:100A1000EE58FF4FA591B4912FB7F894662321F4B7
:100A20008C919095892302C08C91892B8C932FBF38
:100A30000895862F60E00E94860408950895089521
:100A40001092E5011092E401609105017091060198
:100A500080910701909108010E9419058091010180
:100A600061E00E9486040895809105010E940404BB
:100A7000892B19F06AEF70E002C060E070E08091AD
:100A8000010170E00E94260408950E94C9030E949B
:100A9000200583E88093B200809170008E7F809360
:100AA00070008091B0008C7F8093B0008091B10085
:100AB000877F8093B1008091B10086608093B10000
:100AC0008091B1008E7F8093B10080917000816031
:100AD00080937000E0911F01F0912001808191814D
:100AE000892BE1F30E941F05F89480E090E00895BF
:100AF0002091E2012F5F2093E201215049F081E033
:100B000090E09093E1018093E0012093E201089549
:100B100078940E9434050E941E05F8942091E20109
:100B200021502093E2019091E301992359F08091A3
:100B3000E301882339F47894F89491509093E30179
:100B40002093E20108951F920F920FB60F92112485
:100B50002F933F934F935F936F937F938F939F93C5
:100B6000AF93BF93EF93FF9383E88093B20080919C
:100B7000DF018F5F8093DF018091DF01853021F4F9
:100B80001092DF010E947805FF91EF91BF91AF9124
:100B90009F918F917F916F915F914F913F912F9195
:100BA0000F900FBE0F901F901895629FD001739FFA
:100BB000F001829FE00DF11D649FE00DF11D929FF9
:100BC000F00D839FF00D749FF00D659FF00D992738
:100BD000729FB00DE11DF91F639FB00DE11DF91F5C
:100BE000BD01CF0111240895A1E21A2EAA1BBB1B3F
:100BF000FD010DC0AA1FBB1FEE1FFF1FA217B307E9
:100C0000E407F50720F0A21BB30BE40BF50B661FFE
:100C1000771F881F991F1A9469F7609570958095C2
:100C200090959B01AC01BD01CF010895EE0FFF1F10
:0C0C30000590F491E02D0994F894FFCF9A
:100C3C00010900000000000000000000006D0154DC
:100C4C00020301340114015D01000000001202E4F2
:020C5C00010095
:00000001FF
